:020000040000FA
:0200000058287E
:08000800A000030EA100210E6F
:100010008300A00E200E09007F3983169B001C145C
:100020001A08831208007F3983169B0023089A0060
:100030001C158B1355309D00AA309D009C149C18F4
:100040001F288B17831208000430A700A40CA31FDD
:100050002A282C28A4112D28A415A30DA70B262887
:100060000430A700A50CA31F36283828A51139286D
:10007000A515A30DA70B322824162516080081000C
:100080000B110B1D41280800221C47284928051286
:100090004A28051605140510A20CA60B44280514C1
:1000A00005100514051005140510851685120800A5
:1000B0008316003085009F010530810000308B00E1
:1000C00083120730990006303F200C30A200053023
:1000D000A6004420B0303F200C30A2000530A6001E
:1000E0004420FE303F200C30A2000530A600442002
:1000F000FE303F200430A2000530A6004420FE3030
:100100003F200430A2000530A6004420FE303F20EE
:100110000330A2000530A6004420FE303F2000300E
:10012000A2000530A6004420FE303F200330A2008C
:100130000530A6004420FE303F200030A2000530EC
:10014000A6004420FE303F200830A2000530A60063
:100150004420FE303F200030A2000530A60044209D
:10016000FE303F200430A2000530A6004420C830F5
:100170003F200030A800FE303F2028080C20A300BC
:1001800024202408A2000530A6004420FE303F2091
:100190002508A2000530A6004420A80A2808A900C6
:0A01A00009302902031DBB28D428F2
:02400E00A43FCD
:1042000041006C006500780061006E00640072007F
:02421000650047
:00000001FF
